:0A00360000010202030304040505A3
:100D2100E4F566F565F564F563C203C200D202C25B
:100D3100011212547E017F008E0A8F0B751201750C
:100D4100131475080175092075100175115075147A
:100D510001751580EE54E07002C166756700756813
:100D6100808E698F6AC374A09FFF74019ECF240295
:100D7100CF3400FEE48F628E61F560F55FF55EF5BC
:100D81005DF55CF55BAF62AE61AD60AC5FAB5EAA79
:100D91005DA95CA85BC31208C15026E568255EF514
:100DA10082E567355DF58374CDF0E55E2401F55E7E
:100DB100E4355DF55DE4355CF55CE4355BF55B8060
:100DC100C4E4F55EF55DF55CF55BAF62AE61AD6007
:100DD100AC5FAB5EAA5DA95CA85BC31208C15033CE
:100DE100E56A255EF582E569355DF583E0FFE56835
:100DF100255EF582E567355DF583EFF0E55E24015B
:100E0100F55EE4355DF55DE4355CF55CE4355BF597
:100E11005B80B785670A85680B74002480FF7401C5
:100E210034FFFEC3E5139FF513E5129EF512C3E5EA
:100E31000D9FF50DE50C9EF50CC3E50F9FF50FE534
:100E41000E9EF50EC3E5099FF509E5089EF508C359
:100E5100E5119FF511E5109EF510C3E5159FF515F8
:100E6100E5149EF514D2E843D82090E668E0440BDF
:100E7100F090E65CE0443DF0D2AFD208121C8690BF
:100E8100E680E054F7F0538EF8C203300105120BEF
:100E910012C20130032912000E5024C203121DEDAB
:100EA10020001690E682E030E704E020E1EF90E6D2
:100EB10082E030E604E020E0E4121CB512001012DA
:040EC100100080C7D6
:100B120090E6B9E0B40C004002A10D900B2325E051
:100B22007361B5812FA10D81AEA10DA10D613BA114
:100B32000D61B061AB61A161A61200404002A11932
:100B420090E6BBE024FE602214603324FD601114A1
:100B5200602224067047E50A90E6B3F0E50B803781
:100B6200E51290E6B3F0E513802DE50C90E6B3F0C4
:100B7200E50D8023E50E90E6B3F0E50F801990E6CF
:100B8200BAE0FF120FD5AA06A9077B01EA494B601A
:100B92000CEE90E6B3F0EF90E6B4F0A119A11212B8
:100BA2001EFBA119120016A119121F20A119121E53
:100BB200E9A1191200464002A11990E6B8E0247F8B
:100BC200601514601924027062A200E43325E0FF6C
:100BD200A202E4334F8041E490E740F0803F90E688
:100BE200BCE0547EFF7E00E0D394807C0040047D14
:100BF2000180027D00EC4EFEED4F2436F58274003A
:100C02003EF583E493FF3395E0FEEF24A1FFEE343B
:100C1200E68F82F583E0540190E740F0E4A3F09080
:100C2200E68AF090E68B7402F0A119A11212004834
:100C32004002A11990E6B8E024FE6013240260028B
:100C4200A11990E6BAE0B40104C200A119A1129060
:100C5200E6BAE0705590E6BCE0547EFF7E00E0D339
:100C620094807C0040047D0180027D00EC4EFEED0C
:100C72004F2436F58274003EF583E493FF3395E00A
:100C8200FEEF24A1FFEE34E68F82F583E054FEF0FE
:100C920090E6BCE05480131313541FFFE0540F2F4F
:100CA20090E683F0E04420F0806D806412004E50A4
:100CB2006690E6B8E024FE60192402705A90E6BA03
:100CC200E0B40104D200804F90E6BAE064026047CB
:100CD200803E90E6BCE0547EFF7E00E0D394807CB0
:100CE2000040047D0180027D00EC4EFEED4F243673
:100CF200F58274003EF583E493FF3395E0FEEF2422
:100D0200A1FFEE34E68F82F58380081201A250071C
:0F0D120090E6A0E04401F090E6A0E04480F022DB
:03003300020006C2
:0400060053D8EF32AA
:1001000012010002000000406E1300000A0001020C
:020110000001EC
:0A0114000A0600020000004001008E
:1001200009022E0001010060000904000004FF0024
:1001300000000705820200020007050102400000DE
:0E01400007058103400001070586034000010A
:1001500009022E0001010060000904000004FF00F4
:100160000000070582024000000705010240000070
:0E0170000705810340000107058603400001DA
:10018000040309040C0341004E0044004F005200D8
:1001900010035500530042002000430041004D0071
:0201A00000005D
:03000B00021B3C99
:101B3C00C0E0C0D075D000C005C006C007C28CAFD5
:101B4C008CEFFEAD8AED24D1FDE43463CD2400FF8F
:101B5C00ED3E8F8AF58CD28C051DE51D7002051C9F
:0B1B6C00D007D006D005D0D0D0E0326A
:1000E200C2AFE4F51CF51DC28C5389F0438901753A
:0E00F2008AD1758C63C2B9D2A9D28CD2AF224A
:091F1700C2AFAF1DAE1CD2AF2217
:0A1F0D00C2AFE4F51CF51DD2AF22AF
:101E33001127416E646F724C6F636B657233363872
:0F1E4300343100023BFFFF02380000024A00006A
:1012540090E600E054E74412F000000090E67AE0E3
:1012640054FEF0000000121F2800000090E60B74EA
:1012740003F000000090E6017413F000000090E613
:101284001074A0F090E61174B0F090E61274E0F0DF
:10129400E490E613F090E615F090E61474F2F00092
:1012A4000000E490E602F000000090E609F000007F
:1012B4000000000090E6047480F00000007402F066
:1012C4000000007406F0000000E4F00000000000DC
:1012D4000090E618740DF000000090E6207402F00F
:1012E400000000E490E621F0000000D281D283D215
:1012F40087755602F53F7F031219EE90010AEFF04D
:10130400000000E06415600B90E600E054E7441030
:1013140054FDF0E4F557F54EF53AF540F54CF54D2E
:0F132400F551F552F559F55AF53DF53E0208F829
:1008F800121E128F53C20790010AE064076004E0D9
:10090800B408151211597FEC7EFF121959E4F54706
:10091800754F4075B201413D90010AE064056005DC
:10092800E0640C705C754710754F20D208121DC822
:100938007F051219EEEF30E009C28175B20BD207BC
:100948008007D28175B201C2077F051219EEEF3018
:10095800E21E00000090E60174CBF000000090E673
:100968001274E0F000000090E618740DF00000002A
:1009780090010AE0640C600241F4F53B753C0741C4
:10098800F490010AE0640E70267F051219EEEF302C
:10099800E106753B00753C07754710754F20C2810D
:1009A80075B20A75B602C208121E53D207413D90AD
:1009B800010AE0640D6005E0641570237F051219D3
:1009C800EEEF30E106753B00753C07754710754F33
:1009D80020C28175B20BD207D208121DC841769089
:1009E800010AE0640F7027754710754F20C28175A2
:1009F800B20B75B608D207D208121B19D208121901
:100A080025D208121DC875490675500141F4900198
:100A18000AE064117026754780754F20C28175B24F
:100A28000875B602C208121E53C208121E6FD207FA
:100A3800D208121B19D208121DC841F490010AE00D
:100A48006401704E7F051219EEEF30E106753B0028
:100A5800753C0375B201D208121DC8E4FF1219EEE5
:100A6800BFC2057547108003E4F547754F100000B5
:100A78000090E618740CF0000000E490E619F0000D
:100A8800000090E61AF000000090E61BF00000005D
:100A9800805A90010AE06409703775B201D20812D1
:100AA8001DC8753B00753C07E4FF1219EEBFC2056F
:100AB8007547108003E4F5477F051219EEEF30E023
:100AC8000BC28175B20BC281D283D207754F1080D9
:100AD8001B90010AE0B40B0B75B280E4F547754F23
:100AE80020800975B201E4F547754F011200E2D282
:100AF80005E4F53FF52290010AE064076004E0B4DC
:0A0B080008077FEC7EFF1219592246
:10100000200502215890E6A2E020E179121F17D3B3
:10101000EF9463EE94004003121F0D90010AE0B4B8
:101020000F22E5B15407B54904E550701790E7C0A9
:101030007408F090E68F7401F0C39550F550E5B157
:101040005407F549E556B4011BE5AA20E016E5AAC8
:1010500020E0047F0180027F0090E7C0EFF090E67F
:101060008F7401F0E53F30E01CE5AA20E0047F0129
:1010700080027F0090E7C0EFF090E68F7401F0D51A
:101080002203E4F53FE5464548425790E6A5E020B7
:10109000E365E5577005E53F30E05CC3E54D955AE3
:1010A000FFE54C9559FED3EF9401EE940040050501
:1010B0003A434E80C3E552953EFFE551953DFED340
:1010C000EF9401EE940040050540434E4090F80037
:1010D000E557F055466003E4F546E548555760038B
:1010E000E4F548E4F557854C59854D5A85513D85C1
:1010F000523E90E69904F0121D0AEF4E6030E4F57E
:1011000038F539C3E54B940AE54A64809480400879
:1011100090E680E054F7F022C3E54B940BE54A6477
:101120008094805033054BE54B702D054A22E4F541
:101130004AF54BE539640A4538700890E680E0448A
:1011400008F022C3E539940BE53864809480500898
:091150000539E539700205382269
:02000E00D322FB
:02001000D322F9
:02004000D322C9
:081F200090E6BAE0F558D32267
:101EE90090E740E558F0E490E68AF090E68B04F03C
:021EF900D322F2
:1000160090E6BAE0F54390E6837411F07431F0741B
:0D00260001F07421F07412F07432F0D32256
:101EFB0090E740E543F0E490E68AF090E68B04F03F
:021F0B00D322DF
:02004600D322C3
:02004800D322C1
:02004E00D322BB
:1015C00090E6B8E06440707690E6BFE0FE90E6BE3C
:1015D000E0FDEDFFD39400EE94004062E490E68AD3
:1015E000F090E68BF090E6A0E020E1F990E68BE049
:1015F0006F7001EE7048EF64104E7042FFFE744051
:101600002FF582E434E7F583E0FD74272FF8E66DCB
:101610006002C3220FBF00010EEF64104E70DF9016
:10162000E6B9E0B4C11190010AE06407600EE0641D
:10163000086009C2088002D208121DC8D322C32242
:1001A20090E6B9E01208D2022DB002B9B1025DB2F6
:1001B200025DB30323B40355B7038EB8041DB9041B
:1001C2002DBB01F5BD020FBE058ABF049DC1049D72
:1001D200C20458C30479C404A2C50522C60402C7D6
:1001E20003CAC804DDCC02D6D00306D1043DEE001A
:1001F2000005A590E6BFE0756D00F56E756E00F521
:100202006D90E6BEE0426EE4121800A1A590E6BF32
:10021200E0756D00F56E756E00F56D90E6BEE0421C
:100222006EE4AF6EAE6D12185CA1A590E6BBE075F0
:100232006B00F56C756C00F56B90E6BAE0426C12DF
:10024200190890E6B8E0AD6EAC6DAF6CAE6BB4C0A1
:10025200051214B841CF1218B541CF90E6B9E0901B
:10026200E6BBB4B20BE02547F56CE433F56B8006D0
:10027200E0756B00F56CE56C756C00F56B90E6BA99
:10028200E0426C90E6BCE0F54590E6BFE0756D009B
:10029200F56E756E00F56D90E6BEE0426EE490E696
:1002A200B8E0AD6EAC6DAF6CAE6BB4C00512153C70
:1002B200A1A512172EA1A512190890E6B8E0AF6EFB
:1002C200AE6DB4C0051216BE80031213BDD2081261
:1002D2001925A1A590E6BBE0756B00F56C756C0065
:1002E200F56B90E6BAE0426C121AFC90E6B8E0AD0B
:1002F2006EAC6DAF6CAE6BB4C0051214B8801B123D
:1003020018B58016121AFC90E6B8E0AF6EAE6DB466
:10031200C0051216BE80031213BDD208121B19A10A
:10032200A500000000000090E6047480F0000000C8
:100332000000007402F00000000000007406F000EB
:100342000000000000E4F000000000000090E7C0A0
:10035200F0A1A590E6B8E064C06002A1A590E6A075
:10036200E020E1F990010AE090E740F090010CE40E
:100372009390E741F090E60AE090E742F0A3E54F60
:10038200F0A207E433A3F0E4A3F0806890E6B8E0BB
:1003920064C06002A1A590E6A0E020E1F990E740E8
:1003A200E544F090E620E090E741F090E621E0900D
:1003B200E742F090E600E090E743F0E490E68AF04E
:1003C20090E68B7404F0A1A590E6B8E064C06002E8
:1003D200A1A590E6A0E020E1F990E740E53AF0E53A
:1003E2004CA3F0E54DA3F0A3E540F0E551A3F0E501
:1003F20052A3F0E490E68AF090E68B7406F0A1A591
:1004020090E6B8E064C06002A1A590E6A0E020E119
:10041200F9E5B1540790E740F081F390E65EE044DD
:1004220010F090E65CE04402F0A1A590E65EE05494
:10043200EFF090E65CE054FDF0A1A590E680E05478
:100442000DF0E04408F07FDC7E05121ABB90E680D6
:10045200E054F5F0A1A590E6B8E064406002A1A5E1
:1004620090E68AF090E68BF090E6A0E020E1F99029
:10047200E740E0F556A1A590E6B8E064406002A12D
:10048200A590E68AF090E68BF090E6A0E020E1F9F4
:1004920090E740E0F53F752202A1A51215C0A1A583
:1004A20090E6B8E0B4C01190E6A0E020E1F9A2879E
:1004B200E43390E740F0803990E6B8E064406002AF
:1004C200A1A590E68AF090E68BF090E6A0E020E10C
:1004D200F990E740E024FF9287A1A590E6B8E0B446
:1004E200C01B90E6A0E020E1F9A205E43390E740CA
:1004F200F0E490E68AF090E68B04F0A1A590E6B8CD
:10050200E064406002A1A590E68AF090E68BF0904C
:10051200E6A0E020E1F990E740E024FF9205A1A5E2
:1005220090E6BAE0245F601E14601F14604724F254
:10053200601F1460201460242413706790E6B8E0F2
:10054200FF1219A5805DD2088002C208121E5380D4
:1005520052D2088002C208121E6F8047E4F54CF5A1
:100562004DF551F552F559F55AF53DF53EF53AF589
:1005720040F54E802EE5AB30E5FB00000090E648EA
:100582007402F0000000801BE490E68AF090E68B93
:10059200F090E6A0E020E1F990E740E090010AF057
:0505A2001208F8C3225D
:101D3200C0E0C083C082C085C084C086758600D2E0
:101D4200015391EF90E65D7401F0D086D084D08586
:071D5200D082D083D0E03203
:101D5900C0E0C083C082C085C084C0867586005338
:101D690091EF90E65D7404F0D086D084D085D0825E
:051D7900D083D0E03230
:101D7E00C0E0C083C082C085C084C0867586005313
:101D8E0091EF90E65D7402F0D086D084D085D0823B
:051D9E00D083D0E0320B
:101A3500C0E0C083C082C085C084C086758600852D
:101A4500100C85110D850D82850C83A37402F0851C
:101A5500080E85090F850F82850E83A37407F05341
:101A650091EF90E65D7410F0D086D084D085D08259
:051A7500D083D0E03237
:101DA300C0E0C083C082C085C084C08675860053EE
:101DB30091EF90E65D7408F0D086D084D085D08210
:051DC300D083D0E032E6
:10179B00C0E0C083C082C085C084C08675860090BF
:1017AB00E680E030E73485080C85090D850D8285D0
:1017BB000C83A37402F085100E85110F850F8285A3
:1017CB000E83A37407F000000090E6207402F00073
:1017DB00000090E621E4F00000005391EF90E65DED
:1017EB007420F0D086D084D085D082D083D0E032E4
:01000A0032C3
:0100120032BB
:01004200328B
:01004A003283
:01005000327D
:01005100327C
:01005200327B
:0117FB0032BB
:0117FC0032BA
:0117FD0032B9
:0117FE0032B8
:0117FF0032B7
:011F3000327E
:011F3100327D
:011F3200327C
:011F3300327B
:011F3400327A
:011F35003279
:011F36003278
:011F37003277
:011F38003276
:011F39003275
:011F3A003274
:011F3B003273
:011F3C003272
:011F3D003271
:011F3E003270
:011F3F00326F
:011F4000326E
:011F4100326D
:011F4200326C
:011F4300326B
:011F4400326A
:011F45003269
:011F46003268
:011F47003267
:1019EE008F6FE490E000F0A3E56FF07AE07B007D6E
:1019FE00027F51121EA77AE07B027D017F51121EDB
:101A0E008BE56FB4031B90E002E0FFC39401400628
:101A1E00EFD39415400B900108746EF0E490E00241
:071A2E00F090E002E0FF224E
:101E1200E490E000F07AE07B007D017F70121EA763
:101E22007AE07B017D017F70121E8B90E001E0FF62
:011E3200228D
:1014B8008E6F8F708C718D72E5724571607590E6D4
:1014C800A0E020E1F9C3E5729440E571940050086A
:1014D8008571738572748006757300757440E4FFB6
:1014E800FEC3EF9574EE9573501474402FF582E4A3
:1014F80034E7F58374CDF00FBF00010E80E3AD74BF
:101508007AE779407F40AB07AF70AE6F121BB0E44B
:1015180090E68AF090E68BE574F02570F570E57337
:10152800356FF56FC3E5729574F572E5719573F5CE
:041538007180852217
:1018B5008E6F8F708C718D72E57245716044E49006
:1018C500E68AF090E68BF090E6A0E020E1F990E65C
:1018D5008BE0757300F574FD7AE779407F40AB07BF
:1018E500AF70AE6F121B77E5742570F570E5733533
:1018F5006FF56FC3E5729574F572E5719573F571C2
:0319050080B62287
:10153C008E738F748C758D76E5764575607590E637
:10154C00A0E020E1F9C3E5769440E57594005008DD
:10155C008575778576788006757700757840E4FF19
:10156C00FEC3EF9578EE9577501474402FF582E416
:10157C0034E7F58374CDF00FBF00010E80E3AD7836
:10158C007AE779407F40AB07AF74AE73121CE1E48D
:10159C0090E68AF090E68BE578F02574F574E577A3
:1015AC003573F573C3E5769578F576E5759577F52E
:0415BC00758085228F
:10172E008E6F8F708C718D7290E6BCE0F54590E6F1
:10173E00BFE0757100F572757200F57190E6BEE04E
:10174E004272E57245716044E490E68AF090E68B51
:10175E00F090E6A0E020E1F990E68BE0757300F5DD
:10176E0074FD7AE779407F40AB07AF70AE6F12130E
:10177E0033E5742570F570E573356FF56FC3E5725B
:0D178E009574F572E5719573F57180B622C2
:1016BE008E6F8F70E570456F606590E6A0E020E15B
:1016CE00F9C3E5709440E56F94005008856F7185FD
:1016DE0070728006757100757240E4FFFEC3EF955F
:1016EE0072EE9571501474402FF582E434E7F58351
:1016FE0074CDF00FBF00010E80E3AD727AE77B4030
:10170E00AF45121E8BE490E68AF090E68BE572F000
:10171E00C3E5709572F570E56F9571F56F80952242
:1013BD008E6F8F70E570456F6032E490E68AF09025
:1013CD00E68BF090E6A0E020E1F990E68BE07571F8
:1013DD0000F572FD7AE77B40AF45121EA7C3E5709D
:1013ED009572F570E56F9571F56F80C890E678E0B0
:0313FD00F5442292
:10115900D20890E000741FF0A3E4F0A3744DF0A34B
:10116900747DF0E4A3F0A304F0A304F0A304F0A3B6
:1011790004F0A304F0A304F0A304F0E4A3F0A3741F
:1011890080F0E4A3F0A3F0A3F0A37408F0A314F093
:10119900A3745BF07AE07B127D027F52121EA77A5C
:1011A900E07B147D027F52121E8B90E014E0FF1247
:1011B9001A7A90E0127401F0A37438F07AE07B1285
:1011C9007D027F2A121EA790E004E0FF90E00DE067
:1011D900FE90E00CE04EFD7C001216498208920850
:1011E90090E005E0FF90E001E0FCA3E0FD12164964
:1011F9008208920890E006E090E003121644820803
:10120900920890E007E0FF90E010E0FCA3E0FD9079
:10121900E00EE04CFCA3E04DFD121649820892084D
:1012290090E0081216408208920890E009121640D0
:101239008208920890E00A1216408208920890E00B
:0B1249000B12164082089208A2082237
:09164000E090E000FFE0FD7C00F9
:10164900EFD394075008ED94FFEC94074002C322AE
:10165900EF25E0FBE433FAEDAE047805C333CE336E
:10166900CED8F9FFEE4AFEEF4BFDAC06E4FBFAF9E2
:10167900EB25E0FBEA33FAEDAE04A801088005CEBC
:10168900C313CE13D8F95401FFEF420309B910E08F
:10169900AF02AE0390E01574C8F0A3EFF0A3EEF02B
:1016A9007AE07B157D037F70121EA700000090E68B
:0516B90078E0A2E1222F
:101A7A0090E043EFF090E04A30E00E74D3F0752620
:101A8A007B752514752404800C74D3F07526527561
:101A9A0025B875241E75234290E01574C9F090E0AC
:101AAA0043E090E016F07AE07B157D027F70021E1B
:011ABA00A784
:101333008E758F768D778A788B79E577607BAF4F63
:10134300E576FDE54F145DFEC3EF9EFFE577C39F92
:10135300500585777C80028F7CE57590E000F0A3D3
:10136300EDF0757AE0757B02AF7CEF60250579E5DA
:1013730079AC787002057814F5828C83E0FE057BE6
:10138300E57BAC7A7002057A14F5828C83EEF01F4C
:1013930080D8E57C2402FD7AE07B00AF45121EA7CE
:1013A300AF45121BE8E57C2576F576E43575F575D2
:0A13B300C3E577957CF57780812271
:101CE1008E798F7A8D7B8A7C8B7DE57990E000F00F
:101CF100EFA3F07AE07B007D02AF45121EA7AB7D1A
:091D0100AA7CAD7BAF45021E8BEC
:101B77008A758B76EF90E000F08D77E57760290521
:101B870076E576AE757002057514F5828E83E09062
:101B9700E001F07AE07B007D02AF45121EA790E0DE
:091BA70000E004F0157780D32260
:101BB0008A758B76EF90E000F08D77E57760287A74
:101BC000E07B007D01AF45121EA70576E576AA757C
:101BD0007002057514FB7D01AF45121E8B90E0006D
:081BE000E004F0157780D42227
:1019590090E0007440F0AD07AC06EC1207AA7B5387
:101969007A05795B78C012069F7B5C7A8F79197842
:10197900431205AE1207E390E001EFF07AE07B0035
:101989007D027F4C121EA790E00074B0F0A3740191
:0C199900F07AE07B007D027F70021EA748
:1018000090E6A0E020E1F9756F00757003E4FF7EBB
:101810000390E74074CDF0A3DEFC75454C7AE77980
:10182000407F40AB077D017F407E00121BB07AE70E
:1018300079407F40AB077D017F407E00121BB07A6C
:10184000E779417EE77F41AB077D027F4D121E8B1A
:0C185000E490E68AF090E68BE570F02250
:10185C00EF4E605490E6A0E020E1F9C3EF9440EE27
:10186C00940050068E6F8F708006756F00757040F7
:10187C00E4FDFCC3ED9570EC956F5016ED04FB7414
:10188C00402DF582E434E7F583EBF00DBD00010C3F
:10189C0080E1E490E68AF090E68BE570F0C3EF957A
:0918AC0070FFEE956FFE80A8228A
:1019A500754551756F0F7570E0757100757202BFE1
:1019B500C00BAD72AC71AF70AE6F02153CC20812B0
:1019C5001DC8E490E68AF090E68BF090E6A0E02052
:1019D500E1F9AD727AE779407F40AB07AF70AE6F42
:0919E500121333D208121DC822AE
:101D0A00E53CF47003E53BF4601974017E00A83CDD
:101D1A00088005C333CE33CED8F9FFAD80E4FEEF99
:081D2A005DFF227E007F012213
:101E530090E670E03008094401F0D28843A80122DB
:0C1E630054FEF0C288E4F54653A8FE22AD
:101E6F0090E670E03008094402F0D28A43A80422B9
:0C1E7F0054FDF0C28AE4F54853A8FB2291
:101DC80090010AE0B40E0B30080443B1022253B16B
:101DD800FD2290010AE06411600A30080443800182
:051DE800225380FE22E1
:101AFC0090E6BCE0F54590E6BFE0756D00F56E75BF
:0D1B0C006E00F56D90E6BEE0426EE4C2088A
:101B1900200810C28390010AE0B4110443B10222E3
:101B2900D28122D28390010AE0B4110453B1FD227B
:031B3900C2812244
:1019080090E6BCE0F54590E6BFE0756D00F56E75B4
:0D1918006E00F56D90E6BEE0426EE4C20880
:1019250090010AE0640F702BD20990E6BCE0642CAC
:101935006013E06441600EE0644A6009E0644D6054
:1019450004E0B46104A208920930090443B10822F5
:0419550053B1F72271
:03004300021400A4
:0300530002140094
:10140000021D3200021D7E00021D5900021DA300B4
:10141000021A350002179B0002000A0002001200A7
:101420000200420002004A00020050000200510087
:10143000020052000217FB000217FC000217FD0019
:101440000217FE00020012000217FF00021F300008
:10145000021F3100021F3200021F3300021F34003E
:10146000021F3500020012000200120002001200EA
:10147000021F3600021F3700021F3800021F39000A
:10148000021F3A00021F3B00021F3C00021F3D00EA
:10149000021F3E00021F3F00021F4000021F4100CA
:1014A000021F4200021F4300021F4400021F4500AA
:0814B000021F4600021F470065
:101CB50090E682E030E004E020E60B90E682E0303A
:101CC500E119E030E71590E680E04401F07F147EED
:0C1CD50000121ABB90E680E054FEF022E2
:101DED0090E682E044C0F090E681F0438701000068
:041DFD0000000022C0
:101C860030080990E680E0440AF0800790E680E09C
:101C96004408F07FDC7E05121ABB90E65D74FFF007
:0F1CA60090E65FF05391EF90E680E054F7F02264
:101ABB008E6F8F7090E600E05418700DE56FC313B6
:101ACB00F56FE57013F570801590E600E05418FF84
:101ADB00BF100BE57025E0F570E56F33F56FE57022
:101AEB001570AE6F7002156F4E6005121E0180EE01
:011AFB0022C8
:081F2800E4F51BD2E9D2AF225F
:101BE800AD0790E678E020E6F9C2E990E678E044AF
:101BF80080F0ED25E090E679F090E678E030E0F9C5
:101C080090E678E04440F090E678E020E6F990E647
:081C180078E030E1D6D2E922A8
:101C5400AC0790E678E020E6F9E51B702390E6787F
:101C6400E04480F0EC25E090E679F08D16AF03A90E
:101C7400077517018A188919E4F51A751B01D3220F
:021C8400C32279
:101C2000AC0790E678E020E6F9E51B702590E678B1
:101C3000E04480F0EC25E0440190E679F08D16AFA9
:101C400003A9077517018A188919E4F51A751B038A
:041C5000D322C322B6
:03004B00020EC5DD
:100EC500C0E0C083C082C085C084C086758600C06E
:100ED500D075D000C000C001C002C003C006C00765
:100EE50090E678E030E20A751B06E04440F0020F18
:100EF500B790E678E020E110E51B6402600A751BF7
:100F050007E04440F0020FB7E51B24FE605F146064
:100F15003624FE7003020FA824FC7003020FB424CC
:100F2500086003020FB7AB17AA18A919AF1A051A5B
:100F35008F8275830012086490E679F0E51A6516CC
:100F45007070751B05806B90E679E0AB17AA18A940
:100F550019AE1A8E82758300120891751B02E5166B
:100F65006401704E90E678E04420F08045E5162453
:100F7500FEB51A0790E678E04420F0E51614B51A98
:100F85000A90E678E04440F0751B0090E679E0AB06
:100F950017AA18A919AE1A8E827583001208910531
:100FA5001A800F90E678E04440F0751B00800375C9
:100FB5001B005391DFD007D006D003D002D001D05B
:100FC50000D0D0D086D084D085D082D083D0E032F6
:020FD500A9076A
:100FD700AE14AF158F828E83A3E064037017AD0143
:100FE70019ED7001228F828E83E07C002FFDEC3E8D
:080FF700FEAF0580DFE4FEFF00
:010FFF0022CF
:101E8B00121C20E51B24FA600E146006240770F365
:0C1E9B00D322E4F51BD322E4F51BD32274
:101EA700121C54E51B24FA600E146006240770F315
:0C1EB700D322E4F51BD322E4F51BD32258
:101E01007400F58690FDA57C05A3E582458370F9F4
:011E110022AE
:03000300021EC317
:101EC300C0E0054DE54D7002054C7546025388FD93
:031ED300D0E0322A
:03001300021ED6F4
:101ED600C0E00552E552700205517548015388F776
:031EE600D0E03217
:1005A70002084FE86480F8E933E83360110460F02B
:1005B700ED33EC337009E8FCE9FDEAFEEBFF2204BA
:1005C70060DED3EB9FEA9EE99DE8C2E78CF0C2F7B5
:1005D70095F0400CE8CCF8E9CDF9EACEFAEBCFFB81
:1005E70012081A85D0F05804700320D5B3E80470B8
:1005F700075002B2D502085992D5EC0460F7E4CC53
:10060700C0E0C398F8603B94186008400DD0E0FB49
:10061700020831E4FBFAC9FC8028E830E406E4C9A3
:10062700FBE4CAFCE830E305E4C9CACBFCE854079D
:100637006010F8C3E913F9EA13FAEB13FBEC13FCA8
:10064700D8F130F52FC3E49CFCEF9BFFEE9AFEED4B
:1006570099FDD0E0FBEF4E4D4C701222DB030208F0
:1006670056EC2CFCEF33FFEE33FEED33FDED30E7B8
:10067700EB020831EF2BFFEE3AFEED39FDD0E0FB40
:1006870050130BBB0003020859ED13FDEE13FEEFE9
:0806970013FFEC13FC02083113
:10069F00EC4D6011E8497017ED33EC3304600DE455
:1006AF00FCFFFEFD22E933E8330470F802084F1215
:1006BF00081A58046009E4CC248150062850090216
:1006CF000859284003020856C0E0EB4A7044B9802D
:1006DF0006D0E0FB020845EF4E701CBD8008EBFF13
:1006EF00EAFEE9FD80EBE98DF0A4FEE5F002078854
:1006FF00E9CDF9EAFEEBFFEF89F0A4FCE5F0CE8936
:10070F00F0A42EFFE435F0CD89F0A42DFEE435F0F2
:10071F008067EF4E7005BD80D780C3EF8BF0A4AC20
:10072F00F0EE8BF0A42CFCE435F0F8EF8AF0A42C5B
:10073F00E5F038FCE433CB8DF0A42CFCE5F03BF86E
:10074F00EE8AF0A42CFCE5F038F8E433CF89F0A45E
:10075F002CFCE5F038CF3400CE89F0A42FFFE5F064
:10076F003EFEE433C98DF0A42EFEE5F039CD8AF0BC
:10077F00A42FFFE5F03EFEE43DFD33D0E0FB500734
:10078F000BBB000F020859EC2CFCEF33FFEE33FECE
:06079F00ED33FD020831FC
:1007A50075F020800E75F010800575F0087D007ECF
:1007B500007F003392D530D5031208B3EC334010D7
:1007C500EF33FFEE33FEED33FDEC33FCD5F0ED22D8
:0E07D500E5F0247EA2D513CC92E7CDCEFF2214
:1007E300EDD2E7CD33EC3392D524814006E4FFFE0E
:1007F300FDFC22FCE4CFCECDCC24E0501174FF806D
:10080300EDC3CC13CCCD13CDCE13CECF13CF047009
:07081300F030D5DE0208B34E
:10081A00E9D2E7C933E833F892D5EDD2E7CD33EC24
:07082A0033FC5002B2D5229D
:10083100EC30E7100FBF000C0EBE00080DBD000428
:100841000BEB6014A2D5EB13FCED92E7FD2274FFD4
:10085100FCFDFEFF22E480F8A2D574FF13FC7D802D
:03086100E480EF41
:03000000020056A5
:0C005600787FE4F6D8FD75817D02009DE6
:10086400BB010CE58229F582E5833AF583E0225049
:1008740006E92582F8E622BBFE06E92582F8E22293
:0D088400E58229F582E5833AF583E49322AD
:10089100F8BB010DE58229F582E5833AF583E8F09D
:1008A100225006E92582C8F622BBFE05E92582C849
:0208B100F22231
:0E08B300C3E49FFFE49EFEE49DFDE49CFC2256
:1008C100EB9FF5F0EA9E42F0E99D42F0E89C45F08D
:0108D1002204
:1008D200D083D082F8E4937012740193700DA3A3B5
:1008E20093F8740193F5828883E4737402936860C9
:0608F200EFA3A3A380DFC9
:10006200020D21E493A3F8E493A34003F68001F286
:1000720008DFF48029E493A3F85407240CC8C3339F
:10008200C4540F4420C8834004F456800146F6DF6E
:10009200E4800B0102040810204080901E33E47EAD
:1000A200019360BCA3FF543F30E509541FFEE49363
:1000B200A360010ECF54C025E060A840B8E493A32A
:1000C200FAE493A3F8E493A3C8C582C8CAC583CA55
:1000D200F0A3C8C582C8CAC583CADFE9DEE780BE0D
:011E5200008F
:00000001FF
