:1001000012010002FFFFFF406E1301000100010217
:020110000001EC
:0A0114000A0600020000004001008E
:100120000902270001010060320904000003FFFFFB
:10013000FF000705820200020007050102400000DF
:0701400007058103400008E0
:100148000902270001010060320904000003FFFFD3
:10015800FF00070582024000000705010240000079
:070168000705810340000AB6
:10017000040309040C0341004E0044004F005200E8
:0C0180000A034900440055005300000031
:0A11B2000001020203030404050516
:10090000E4F52CF52BF52AF529C203C200D202C268
:1009100001120BAD7E017F008E0A8F0B75120175DF
:1009200013147508017509207510017511487514A7
:1009300001751570EE54E07003020A46752D0075BE
:100940002E808E2F8F30C3748A9FFF74019ECF2418
:1009500002CF3400FEE48F288E27F526F525F524F6
:10096000F523F522F521AF28AE27AD26AC25AB2423
:10097000AA23A922A821C3120CC45026E52E25249F
:10098000F582E52D3523F58374CDF0E5242401F5BA
:1009900024E43523F523E43522F522E43521F5213D
:1009A00080C4E4F524F523F522F521AF28AE27AD68
:1009B00026AC25AB24AA23A922A821C3120CC4501B
:1009C00033E5302524F582E52F3523F583E0FFE577
:1009D0002E2524F582E52D3523F583EFF0E524243B
:1009E00001F524E43523F523E43522F522E435210D
:1009F000F52180B7852D0A852E0B74002480FF74A5
:100A00000134FFFEC3E5139FF513E5129EF512C3F3
:100A1000E50D9FF50DE50C9EF50CC3E50F9FF50F59
:100A2000E50E9EF50EC3E5099FF509E5089EF5085C
:100A3000C3E5119FF511E5109EF510C3E5159FF56F
:100A400015E5149EF514D2E843D82090E668E044FA
:100A50000BF090E65CE0443DF0D2AFD2051200D13D
:100A600090E680E054F7F0538EF8C203300105128F
:100A700006DCC2013003291211D45024C203121023
:100A80008A20001690E682E030E704E020E1EF9053
:100A9000E682E030E604E020E0E41210081211D60D
:050AA0001210AF80C739
:1006DC0090E6B9E0700302078D14700302080A2437
:1006EC00FE700302088D24FB70030207871470034D
:1006FC00020781146073146076240560030208EC11
:10070C001211D840030208F890E6BBE024FE6022E8
:10071C0014603324FD601114602224067048E50A2D
:10072C0090E6B3F0E50B8037E51290E6B3F0E513F5
:10073C00802DE50C90E6B3F0E50D8023E50E90E6F8
:10074C00B3F0E50F801990E6BAE0FF121034AA0658
:10075C00A9077B01EA494B600DEE90E6B3F0EF90F0
:10076C00E6B4F00208F80208F11211940208F8122B
:10077C0011C40208F81211BC0208F8121182020806
:10078C00F81211DA40030208F890E6B8E0247F6012
:10079C001514601924027063A200E43325E0FFA253
:1007AC0002E4334F8041E490E740F0803F90E6BC98
:1007BC00E0547EFF7E00E0D394807C0040047D01F9
:1007CC0080027D00EC4EFEED4F24B2F58274113E9A
:1007DC00F583E493FF3395E0FEEF24A1FFEE34E6BE
:1007EC008F82F583E0540190E740F0E4A3F090E6AB
:1007FC008AF090E68B7402F00208F80208F11211EC
:10080C00DC40030208F890E6B8E024FE60162402EF
:10081C0060030208F890E6BAE0B40105C2000208D1
:10082C00F80208F190E6BAE0705590E6BCE0547E10
:10083C00FF7E00E0D394807C0040047D0180027D2B
:10084C0000EC4EFEED4F24B2F58274113EF583E4BC
:10085C0093FF3395E0FEEF24A1FFEE34E68F82F593
:10086C0083E054FEF090E6BCE05480131313541F45
:10087C00FFE0540F2F90E683F0E04420F0806D8071
:10088C00641211DE506690E6B8E024FE6019240272
:10089C00705A90E6BAE0B40104D200804F90E6BAE8
:1008AC00E064026047803E90E6BCE0547EFF7E0030
:1008BC00E0D394807C0040047D0180027D00EC4EEE
:1008CC00FEED4F24B2F58274113EF583E493FF33B1
:1008DC0095E0FEEF24A1FFEE34E68F82F5838008CD
:1008EC0012018C500790E6A0E04401F090E6A0E0E5
:0408FC004480F02222
:03003300020CFBC1
:040CFB0053D8EF32A9
:100BAD0090E600E054E54410F000000090E67AE095
:100BBD0054FEF000000090E65E7404F01211CCD2E9
:100BCD000000000090E60B7403F000000090E601B9
:100BDD007413F000000090E61074A0F090E611740C
:100BED00B0F090E61274E0F0E490E613F090E615A4
:100BFD00F090E614F000000090E618740CF0000080
:100C0D0000E490E619F000000090E61AF0000000F4
:100C1D0090E61BF000000090E602F00000000000DE
:100C2D000090E609F000000000000090E6047480DA
:100C3D00F00000000000007402F000000000000051
:100C4D00E4F000000090E620F000000090E6217432
:100C5D0040F000000075B58075B201C2B7D280E4D6
:080C6D00F5421210608F4222D3
:1010AF0090E6A2E020E11BE5AA20E016E5AA20E0E9
:1010BF00047F0180027F0090E7C0EFF090E68F740D
:0310CF0001F0220B
:0211D400D32224
:0211D600D32222
:0211D800D32220
:0811BC0090E6BAE0F543D322EE
:1011820090E740E543F0E490E68AF090E68B04F0C5
:02119200D32266
:0811C40090E6BAE0F53FD322EA
:1011940090E740E53FF0E490E68AF090E68B04F0B7
:0211A400D32254
:0211DA00D3221E
:0211DC00D3221C
:0211DE00D3221A
:10018C0090E6B9E0120CD501C3B00528B102E4B277
:10019C000407B30606B40635B7066EB806AAC10640
:1001AC00B6C206C1EE000001B5E4F540F533F534F6
:1001BC00F531F5320206DA90E6BBE0753100F53226
:1001CC00753200F53190E6BAE0423290E6BCE0F5CB
:1001DC004090E6BFE0753300F534753400F533908C
:1001EC00E6BEE04234C204E540B45102D20490E6CB
:1001FC00B8E064C0600302028CE53445337003023E
:10020C0006DA90E6A0E020E1F9C3E5349440E5334A
:10021C009400500885333585343680067535007565
:10022C003640E4F537F538C3E5389536E53795357E
:10023C00501874402538F582E434E7F58374CDF01A
:10024C000538E53870E1053780DDAD367AE7794061
:10025C007F40AB07AF32AE31120DB8E490E68AF0B6
:10026C0090E68BE536F02532F532E5353531F53152
:10027C00C3E5349536F534E5339535F5330202058F
:10028C0090E6B8E0644060030206DAE5344533706A
:10029C00030206DAE490E68AF090E68BF090E6A092
:1002AC00E020E1F990E68BE0753500F536FD7AE754
:1002BC0079407F40AB07AF32AE31120F6DE536257A
:1002CC0032F532E5353531F531C3E5349536F53453
:1002DC00E5339535F53380B390E6BBE04542753197
:1002EC0000F532753200F53190E6BAE0423290E614
:1002FC00BCE0F54090E6BFE0753300F53475340092
:10030C00F53390E6BEE04234C204E540B45102D26B
:10031C000490E6B8E064C060030203AFE5344533F3
:10032C0070030206DA90E6A0E020E1F9C3E534940C
:10033C0040E5339400500885333585343680067596
:10034C003500753640E4F537F538C3E5389536E5B4
:10035C00379535501874402538F582E434E7F58329
:10036C0074CDF00538E53870E1053780DDAD367AAF
:10037C00E779407F40AB07AF32AE31120DB8E49055
:10038C00E68AF090E68BE536F02532F532E5353528
:10039C0031F531C3E5349536F534E5339535F53320
:1003AC0002032890E6B8E0644060030206DAE53404
:1003BC00453370030206DAE490E68AF090E68BF09F
:1003CC0090E6A0E020E1F990E68BE0753500F5367B
:1003DC00FD7AE779407F40AB07AF32AE31120F3870
:1003EC00E5362532F532E5353531F531C3E5349551
:1003FC0036F534E5339535F53380B390E6BBE075CF
:10040C003100F532753200F53190E6BAE0423290A7
:10041C00E6BCE0F54090E6BFE0753300F53475348A
:10042C0000F53390E6BEE04234C204E540B451021C
:10043C00D20490E6B8E064C060030204D0E5344511
:10044C003370030206DA90E6A0E020E1F9C3E5344C
:10045C009440E53394005008853335853436800656
:10046C00753500753640E4F537F538C3E538953603
:10047C00E5379535501874402538F582E434E7F5A6
:10048C008374CDF00538E53870E1053780DDAD3685
:10049C007AE779407F40AB07AF32AE31120DB8E44A
:1004AC0090E68AF090E68BE536F02532F532E535AC
:1004BC003531F531C3E5349536F534E5339535F5FD
:1004CC003302044990E6B8E0644060030206DAE5C2
:1004DC0034453370030206DAE490E68AF090E68B3A
:1004EC00F090E6A0E020E1F990E68BE0753500F5A0
:1004FC0036FD7AE779407F40AB07AF32AE31120F51
:10050C0038E5362532F532E5353531F531C3E5348C
:10051C009536F534E5339535F53380B390E6BCE08C
:10052C00F54090E6BFE0753300F534753400F533D3
:10053C0090E6BEE0423490E6B8E064C07076E534F4
:10054C00453370030206DA90E6A0E020E1F9C3E53A
:10055C00349440E533940050088533358534368027
:10056C0006753500753640E4F537F538C3E5389532
:10057C0036E5379535501874402538F582E434E764
:10058C00F58374CDF00538E53870E1053780DDADC5
:10059C00367AE77B40AF401210EEE490E68AF0909A
:1005AC00E68BE536F0C3E5349536F534E533953511
:1005BC00F533808A90E6B8E0644060030206DAE521
:1005CC0034453370030206DAE490E68AF090E68B49
:1005DC00F090E6A0E020E1F990E68BE0753500F5AF
:1005EC0036FD7AE77B40AF4012110AC3E5349536ED
:1005FC00F534E5339535F53380C500000000000077
:10060C0090E6047480F00000000000007402F0001A
:10061C000000000000E4F0000000000000000000FA
:10062C00B2B790E7C0F00206DA90E6B8E064C060BA
:10063C00030206DA90E6A0E020E1F990010AE493C7
:10064C0090E740F090010CE49390E741F0E4A3F0C4
:10065C00A3F0A3F0A3F090E68AF090E68B7406F07A
:10066C00806C90E6B8E064C0706490E6A0E020E195
:10067C00F990E678E090E740F090E620E090E741D2
:10068C00F090E621E090E742F090E600E090E7433E
:10069C00F0E490E68AF090E68B7404F0803090E6FB
:1006AC00B8E064407028C280802490E6B8E0B44082
:1006BC001DD280801990E680E0540DF0E04408F0E3
:1006CC007FDC7E05120E4590E680E054F5F0C322E7
:10112600C0E0C083C082D2015391EF90E65D7401A6
:08113600F0D082D083D0E0323A
:10115600C0E0C083C0825391EF90E65D7404F0D086
:0611660082D083D0E032CC
:10116C00C0E0C083C0825391EF90E65D7402F0D072
:06117C0082D083D0E032B6
:100ECC00C0E0C083C08285100C85110D850D828514
:100EDC000C83A37402F085080E85090F850F82859B
:100EEC000E83A37407F05391EF90E65D7410F0D06D
:060EFC0082D083D0E03239
:10113E00C0E0C083C082D2035391EF90E65D740885
:08114E00F0D082D083D0E03222
:10008000C0E0C083C08290E680E030E73485080C91
:1000900085090D850D82850C83A37402F085100EF1
:1000A00085110F850F82850E83A37407F000000071
:1000B00090E6207402F000000090E621E4F00000D9
:1000C000005391EF90E65D7420F0D082D083D0E0B1
:0100D00032FD
:010CFF0032C2
:0111E00032DC
:0111E10032DB
:0111E20032DA
:1010D200C0E0C083C08290E7C0E4F05391EF90E695
:0C10E2005FE04404F0D082D083D0E03204
:0111E30032D9
:0111E40032D8
:0111E50032D7
:0111E60032D6
:0111E70032D5
:0111E80032D4
:0111E90032D3
:0111EA0032D2
:0111EB0032D1
:0111EC0032D0
:0111ED0032CF
:0111EE0032CE
:0111EF0032CD
:0111F00032CC
:0111F10032CB
:0111F20032CA
:0111F30032C9
:0111F40032C8
:0111F50032C7
:0111F60032C6
:0111F70032C5
:0111F80032C4
:0111F90032C3
:0111FA0032C2
:0111FB0032C1
:0111FC0032C0
:0111FD0032BF
:0111FE0032BE
:0111FF0032BD
:0112000032BB
:0112010032BA
:100DFF00AB07AA06AC05E4FD30040F7E000DEE2410
:100E0F00FFF582E43413F583EAF0AE050D74FF2E7F
:100E1F00F582E43413F583EBF0AF050D74FF2FF576
:100E2F0082E43413F583ECF07A137BFFAF40121199
:060E3F000AAF40020F02A1
:100F38008E398F3A8D3B8A3C8B3DE4F53EE53EC3C6
:100F4800953B5020053AE53AAE397002053914FF51
:100F5800E53D253EF582E4353CF583E0FD120DFFC5
:050F6800053E80D922C6
:100DB8008E398F3A8D3B8A3C8B3DE4FDF53E3004FD
:100DC80012E539FF7E000DEE24FFF582E43413F5B9
:100DD80083EFF0AE050D74FF2EF582E43413F5832E
:100DE800E53AF07A137BFFAF4012110AAB3DAA3CFB
:070DF800AD3BAF400210EE1D
:100E8B00AB07AA06AC05E4FD30040F7E000DEE2483
:100E9B00FFF582E43413F583EAF0AE050D74FF2EF3
:100EAB00F582E43413F583EBF0AF050D74FF2FF5EA
:100EBB0082E43413F583ECF07A137BFFAF4002111D
:010ECB000A1C
:100F6D008E398F3A8D3B8A3C8B3DE4F53EE53EC391
:100F7D00953B5020053AE53AAE397002053914FF1C
:100F8D00E53D253EF582E4353CF583E0FD120E8B03
:050F9D00053E80D92291
:10106000754051D2047AE07B007D01E4FFFE120D51
:10107000B890E000E0B4C2057410F08005E490E0A0
:0A10800000F0C20490E000E0FF223F
:1010080090E682E030E004E020E60B90E682E030F3
:10101800E119E030E71590E680E04401F07F147EA6
:0C10280000120E4590E680E054FEF0221D
:10108A0090E682E044C0F090E681F04387010000D8
:04109A000000002230
:1000D10030050990E680E0440AF0800790E680E070
:1000E1004408F07FDC7E05120E4590E65D74FFF05A
:0F00F10090E65FF05391EF90E680E054F7F02235
:100E45008E398F3A90E600E054187012E53A240185
:100E5500FFE43539C313F539EF13F53A801590E6FC
:100E650000E05418FFBF100BE53A25E0F53AE539E7
:100E750033F539E53A153AAE39700215394E600544
:060E850012109E80EE2217
:0811CC00E4F51BD2E9D2AF22C9
:100F020090E678E020E6F9C2E990E678E04480F0E5
:100F1200EF25E090E679F090E678E030E0F990E6AF
:100F220078E04440F090E678E020E6F990E678E058
:060F320030E1D6D2E922F5
:100FD600A90790E678E020E6F9E51B702390E6780D
:100FE600E04480F0E925E090E679F08D16AF03A99C
:100FF600077517018A188919E4F51A751B01D3229A
:02100600C32203
:100FA200A90790E678E020E6F9E51B702590E6783F
:100FB200E04480F0E925E0440190E679F08D16AF37
:100FC20003A9077517018A188919E4F51A751B0315
:040FD200D322C32241
:03004B00020AA501
:100AA500C0E0C083C082C085C084C086758600C092
:100AB500D075D000C000C001C002C003C006C00789
:100AC50090E678E030E206751B06020B8F90E6781B
:100AD500E020E10CE51B64026006751B07020B8F25
:100AE500E51B24FE605F14603624FE7003020B8054
:100AF50024FC7003020B8C24086003020B8FAB17D8
:100B0500AA18A919AF1A051A8F82758300120C75D8
:100B150090E679F0E51A65167070751B05806B9087
:100B2500E679E0AB17AA18A919AE1A8E827583006B
:100B3500120CA2751B02E5166401704E90E678E072
:100B45004420F08045E51624FEB51A0790E678E0C6
:100B55004420F0E51614B51A0A90E678E04440F012
:100B6500751B0090E679E0AB17AA18A919AE1A8E85
:100B750082758300120CA2051A800F90E678E04476
:100B850040F0751B008003751B005391DFD007D023
:100B950006D003D002D001D000D0D0D086D084D0EA
:080BA50085D082D083D0E0323C
:02103400A9070A
:10103600AE14AF158F828E83A3E064037017AD01E3
:1010460019ED7001228F828E83E07C002FFDEC3E2D
:09105600FEAF0580DF7E007F0083
:01105F00226E
:1010EE00120FA2E51B24FA600E146006240770F39B
:0C10FE00D322E4F51BD322E4F51BD3221F
:10110A00120FD6E51B24FA600E146006240770F34A
:0C111A00D322E4F51BD322E4F51BD32202
:10109E007400F58690FDA57C05A3E582458370F965
:0110AE00221F
:03004300020D00AB
:03005300020D009B
:100D00000211260002116C000211560002113E0071
:100D1000020ECC0002008000020CFF000211E00075
:100D20000211E1000211E2000210D2000211E30000
:100D30000211E4000211E5000211E6000211E700D1
:100D40000211E8000211E0000211E9000211EA00BC
:100D50000211EB000211EC000211ED000211EE0095
:100D60000211EF000211E0000211E0000211E000A8
:100D70000211F0000211F1000211F2000211F30061
:100D80000211F4000211F5000211F6000211F70041
:100D90000211F8000211F9000211FA000211FB0021
:100DA0000211FC000211FD000211FE000211FF0001
:080DB000021200000212010012
:030000000211A644
:0C11A600787FE4F6D8FD75814302090053
:100C7500BB010CE58229F582E5833AF583E0225034
:100C850006E92582F8E622BBFE06E92582F8E2227E
:0D0C9500E58229F582E5833AF583E4932298
:100CA200F8BB010DE58229F582E5833AF583E8F088
:100CB200225006E92582C8F622BBFE05E92582C834
:020CC200F2221C
:100CC400EB9FF5F0EA9E42F0E99D42F0E89C45F086
:010CD40022FD
:100CD500D083D082F8E4937012740193700DA3A3AE
:100CE50093F8740193F5828883E4737402936860C2
:060CF500EFA3A3A380DFC2
:00000001FF
